{
  "_format": "hh-sol-artifact-1",
  "contractName": "BuyMeACoffee",
  "sourceName": "contracts/BuyMeACoffee.sol",
  "abi": [
    {
      "inputs": [],
      "stateMutability": "nonpayable",
      "type": "constructor"
    },
    {
      "anonymous": false,
      "inputs": [
        {
          "indexed": true,
          "internalType": "address",
          "name": "from",
          "type": "address"
        },
        {
          "indexed": false,
          "internalType": "uint256",
          "name": "timestamp",
          "type": "uint256"
        },
        {
          "indexed": false,
          "internalType": "string",
          "name": "name",
          "type": "string"
        },
        {
          "indexed": false,
          "internalType": "string",
          "name": "message",
          "type": "string"
        }
      ],
      "name": "NewMemo",
      "type": "event"
    },
    {
      "inputs": [
        {
          "internalType": "string",
          "name": "_name",
          "type": "string"
        },
        {
          "internalType": "string",
          "name": "_message",
          "type": "string"
        }
      ],
      "name": "buyCoffee",
      "outputs": [],
      "stateMutability": "payable",
      "type": "function"
    },
    {
      "inputs": [],
      "name": "getMemos",
      "outputs": [
        {
          "components": [
            {
              "internalType": "address",
              "name": "from",
              "type": "address"
            },
            {
              "internalType": "uint256",
              "name": "timestamp",
              "type": "uint256"
            },
            {
              "internalType": "string",
              "name": "name",
              "type": "string"
            },
            {
              "internalType": "string",
              "name": "message",
              "type": "string"
            }
          ],
          "internalType": "struct BuyMeACoffee.Memo[]",
          "name": "",
          "type": "tuple[]"
        }
      ],
      "stateMutability": "view",
      "type": "function"
    },
    {
      "inputs": [
        {
          "internalType": "address payable",
          "name": "to",
          "type": "address"
        }
      ],
      "name": "withdrawTips",
      "outputs": [],
      "stateMutability": "nonpayable",
      "type": "function"
    }
  ],
  "bytecode": "0x608060405234801561001057600080fd5b50336000806101000a81548173ffffffffffffffffffffffffffffffffffffffff021916908373ffffffffffffffffffffffffffffffffffffffff160217905550610b45806100606000396000f3fe6080604052600436106100345760003560e01c8063204206e114610039578063865c517214610055578063ee69785014610080575b600080fd5b610053600480360381019061004e9190610609565b6100a9565b005b34801561006157600080fd5b5061006a610231565b604051610077919061082a565b60405180910390f35b34801561008c57600080fd5b506100a760048036038101906100a291906105e0565b610414565b005b600034116100ec576040517f08c379a00000000000000000000000000000000000000000000000000000000081526004016100e39061084c565b60405180910390fd5b600160405180608001604052803373ffffffffffffffffffffffffffffffffffffffff16815260200142815260200184815260200183815250908060018154018082558091505060019003906000526020600020906004020160009091909190915060008201518160000160006101000a81548173ffffffffffffffffffffffffffffffffffffffff021916908373ffffffffffffffffffffffffffffffffffffffff1602179055506020820151816001015560408201518160020190805190602001906101bb9291906104c0565b5060608201518160030190805190602001906101d89291906104c0565b5050503373ffffffffffffffffffffffffffffffffffffffff167fc56140e05f516509ae28110e0f72e17558a7561630dad2647c3ae87d986e365c4284846040516102259392919061086c565b60405180910390a25050565b60606001805480602002602001604051908101604052809291908181526020016000905b8282101561040b57838290600052602060002090600402016040518060800160405290816000820160009054906101000a900473ffffffffffffffffffffffffffffffffffffffff1673ffffffffffffffffffffffffffffffffffffffff1673ffffffffffffffffffffffffffffffffffffffff168152602001600182015481526020016002820180546102e8906109fd565b80601f0160208091040260200160405190810160405280929190818152602001828054610314906109fd565b80156103615780601f1061033657610100808354040283529160200191610361565b820191906000526020600020905b81548152906001019060200180831161034457829003601f168201915b5050505050815260200160038201805461037a906109fd565b80601f01602080910402602001604051908101604052809291908181526020018280546103a6906109fd565b80156103f35780601f106103c8576101008083540402835291602001916103f3565b820191906000526020600020905b8154815290600101906020018083116103d657829003601f168201915b50505050508152505081526020019060010190610255565b50505050905090565b60008054906101000a900473ffffffffffffffffffffffffffffffffffffffff1673ffffffffffffffffffffffffffffffffffffffff163373ffffffffffffffffffffffffffffffffffffffff161461046c57600080fd5b60004790508173ffffffffffffffffffffffffffffffffffffffff166108fc829081150290604051600060405180830381858888f193505050501580156104b7573d6000803e3d6000fd5b50600090505050565b8280546104cc906109fd565b90600052602060002090601f0160209004810192826104ee5760008555610535565b82601f1061050757805160ff1916838001178555610535565b82800160010185558215610535579182015b82811115610534578251825591602001919060010190610519565b5b5090506105429190610546565b5090565b5b8082111561055f576000816000905550600101610547565b5090565b6000610576610571846108d6565b6108b1565b90508281526020810184848401111561058e57600080fd5b6105998482856109bb565b509392505050565b6000813590506105b081610af8565b92915050565b600082601f8301126105c757600080fd5b81356105d7848260208601610563565b91505092915050565b6000602082840312156105f257600080fd5b6000610600848285016105a1565b91505092915050565b6000806040838503121561061c57600080fd5b600083013567ffffffffffffffff81111561063657600080fd5b610642858286016105b6565b925050602083013567ffffffffffffffff81111561065f57600080fd5b61066b858286016105b6565b9150509250929050565b600061068183836107a2565b905092915050565b6106928161096d565b82525050565b60006106a382610917565b6106ad818561093a565b9350836020820285016106bf85610907565b8060005b858110156106fb57848403895281516106dc8582610675565b94506106e78361092d565b925060208a019950506001810190506106c3565b50829750879550505050505092915050565b600061071882610922565b610722818561094b565b93506107328185602086016109ca565b61073b81610abe565b840191505092915050565b600061075182610922565b61075b818561095c565b935061076b8185602086016109ca565b61077481610abe565b840191505092915050565b600061078c601a8361095c565b915061079782610acf565b602082019050919050565b60006080830160008301516107ba6000860182610689565b5060208301516107cd602086018261080c565b50604083015184820360408601526107e5828261070d565b915050606083015184820360608601526107ff828261070d565b9150508091505092915050565b610815816109b1565b82525050565b610824816109b1565b82525050565b600060208201905081810360008301526108448184610698565b905092915050565b600060208201905081810360008301526108658161077f565b9050919050565b6000606082019050610881600083018661081b565b81810360208301526108938185610746565b905081810360408301526108a78184610746565b9050949350505050565b60006108bb6108cc565b90506108c78282610a2f565b919050565b6000604051905090565b600067ffffffffffffffff8211156108f1576108f0610a8f565b5b6108fa82610abe565b9050602081019050919050565b6000819050602082019050919050565b600081519050919050565b600081519050919050565b6000602082019050919050565b600082825260208201905092915050565b600082825260208201905092915050565b600082825260208201905092915050565b600061097882610991565b9050919050565b600061098a82610991565b9050919050565b600073ffffffffffffffffffffffffffffffffffffffff82169050919050565b6000819050919050565b82818337600083830152505050565b60005b838110156109e85780820151818401526020810190506109cd565b838111156109f7576000848401525b50505050565b60006002820490506001821680610a1557607f821691505b60208210811415610a2957610a28610a60565b5b50919050565b610a3882610abe565b810181811067ffffffffffffffff82111715610a5757610a56610a8f565b5b80604052505050565b7f4e487b7100000000000000000000000000000000000000000000000000000000600052602260045260246000fd5b7f4e487b7100000000000000000000000000000000000000000000000000000000600052604160045260246000fd5b6000601f19601f8301169050919050565b7f63616e27742062757920636f6666656520666f72206672656521000000000000600082015250565b610b018161097f565b8114610b0c57600080fd5b5056fea26469706673582212208b2f3bbd8e3a262e05681098fc4fa8e39cac376acaf4a8948a07a9a2eb5a699f64736f6c63430008040033",
  "linkReferences": {},
  "deployedLinkReferences": {}
}